S00B00005450332E7372656342
S11300000C9454000C9471000C9471000C947100C5
S11300100C9471000C9471000C9471000C94710098
S11300200C9471000C9471000C9471000C94710088
S11300300C9471000C9471000C945D030C94710089
S11300400C9471000C9471000C9471000C94710068
S11300500C9471000C9471000C9471000C94710058
S11300600C9471000C947100001F000000001F002C
S1130070001F101010101F00001F181818181F0060
S1130080001F1C1C1C1C1F00001F1E1E1E1E1F0008
S1130090001F1F1F1F1F1F0003070F1F0F07030051
S11300A0181C1E1F1E1C180011241FBECFEFD8E001
S11300B0DEBFCDBF11E0A0E0B1E0E8EBF7E002C0A5
S11300C005900D92A231B107D9F721E0A2E1B1E088
S11300D001C01D92A032B207E1F70E94DE020C9427
S11300E0DA030C94000065B1982F9074492F50E006
S11300F055954795559547955595479555954795E4
S1130100982F9078292F30E0022E232F000C221FE5
S1130110330B000C221F331F962F997F492B242B5E
S113012025B968B1982F9071492F50E0559547959E
S11301305595479555954795982F9072292F30E0FE
S1130140359527953595279535952795962F997F3C
S1130150492B242B28B99BB192609BB99BB1916028
S11301609BB925ED2A95F1F700009BB19E7F9BB9C1
S11301709BB19D7F9BB995ED9A95F1F7000065B110
S113018020E1829FC0011124AC014074552755958C
S113019047955595479555954795559547959C0190
S11301A020783327022E232F000C221F330B000C40
S11301B0221F331F362F397F432B242B25B948B1F7
S11301C09C012071332735952795359527953595CD
S11301D027958072992795958795959587959595F7
S11301E08795942F997F292B822B88B98BB18260B4
S11301F08BB98BB181608BB985ED8A95F1F70000DD
S11302008BB18E7F8BB98BB18D7F8BB995ED9A9520
S1130210F1F70000089565B1982F9074492F50E0CC
S113022055954795559547955595479555954795B2
S1130230982F9078292F30E0022E232F000C221FB4
S1130240330B000C221F331F962F997F492B242B2D
S113025025B968B1982F9071492F50E0559547956D
S11302605595479555954795982F9072292F30E0CD
S1130270359527953595279535952795962F997F0B
S1130280492B242B28B99BB191609BB9EFE9FFE07E
S11302903197F1F700C000009BB19E7F9BB9EFE955
S11302A0FFE03197F1F700C0000065B1F0E18F9FE6
S11302B0C0011124AC0140745527559547955595B7
S11302C0479555954795559547959C012078332733
S11302D0022E232F000C221F330B000C221F331F6E
S11302E0362F397F432B242B25B948B19C0120712B
S11302F0332735952795359527953595279580721C
S11303009927959587959595879595958795942F94
S1130310997F292B822B88B98BB181608BB98FE9A6
S11303209FE00197F1F700C000008BB18E7F8BB97D
S1130330EFE9FFE03197F1F700C00000089581E094
S11303400E940B01089582E00E940B0108950F930F
S11303501F93CF93DF93009769F0D62F8C01C0E0F1
S113036007C0F801EC0FF11D80810E947300CF5F7C
S1130370CD17B8F3DF91CF911F910F91089562309B
S113038031F0633031F0613029F4805C03C08C5E5D
S113039001C08C5A80680E940B010895EF92FF926D
S11303A00F931F93CF93DF937C01862F90E0880FE8
S11303B0991F880F991F880F991F8064C0E0D0E0AF
S11303C00DC0F701EC0FFD1F149101E0080F0E940E
S11303D00B01812F0E9473002196802FC830D10514
S11303E080F3DF91CF911F910F91FF90EF900895CB
S11303F0CF93DF938FE59AEE0197F1F700C00000E9
S113040085B1897F85B988B1897F88B91BB887B1DF
S1130410866087B984B1866084B984B1866084B902
S113042087B1866087B98AB183608AB985B1897FCB
S113043085B988B1866088B98BB181608BB98FE941
S11304409FE00197F1F700C000008BB18E7F8BB95C
S11304508FE99FE00197F1F700C0000085B1897F23
S113046085B988B1866088B98BB181608BB98FE911
S11304709FE00197F1F700C000008BB18E7F8BB92C
S11304808FE99FE00197F1F700C0000085B1897FF3
S113049085B988B1897F846088B98BB181608BB953
S11304A08FE99FE00197F1F700C000008BB18E7FC8
S11304B08BB98FE99FE00197F1F700C0000088E253
S11304C00E940B018CE00E940B0160E0C0E00AC0B6
S11304D0D1E0D60F8C2F90E088599F4F0E94CE0117
S11304E0C85F6D2FC034A0F3DF91CF910895EF92D0
S11304F0FF920F931F93CF93DF9300D000D01F92EE
S1130500CDB7DEB77B01FE01319625E0DF011D92F8
S11305102A95E9F724E030E00FC06AE070E00E9419
S1130520B203E1E0F0E0EC0FFD1FE20FF31F808364
S1130530862F972F21503109009779F7BFEFEB16DB
S1130540FB0681F403C00F5F1F4F02C000E010E000
S1130550E1E0F0E0EC0FFD1FE00FF11F208122230A
S113056091F304C005E010E00E191F09992384F4E7
S11305708DE20E9473000CC0E1E0F0E0EC0FFD1F7F
S1130580E00FF11F8081805D0E9473000F5F1F4F99
S1130590053011058CF30F900F900F900F900F9072
S11305A0DF91CF911F910F91FF90EF9008950E94DA
S11305B0F8010E949F010E94A30108950E94D7029E
S11305C00E941E03872E982EA92EBB24C92EDD243B
S11305D0EE24FF240E949F0160E080E00E94BF019E
S11305E066E080E091E00E94A70163E070E0882D5E
S11305F090E00E94770262E087E091E00E94A70108
S113060061E080E00E94BF0165E08AE091E00E9421
S1130610A70163E070E08C2D90E00E94770261E016
S113062080E191E00E94A7012FEF83ED90E3215038
S113063080409040E1F700C00000C2CF87B18160E4
S113064087B988B1816088B98FE19EE40197F1F799
S113065000C0000088B18E7F88B99FEF29EF30E099
S1130660915020403040E1F700C0000088B1816023
S113067088B987B18E7F87B93099FECF309BFECF82
S11306803099FECF80E090E0DC0120E011C0309B87
S1130690FECF30EA3A95F1F736B13170832B2F3122
S11306A021F0880F991FAA1FBB1F3099FECF2F5F1F
S11306B020326CF3BC01CD0108951F920F920FB646
S11306C00F9211248F939F93AF93BF938091120144
S11306D090911301A0911401B09115010196A11DEF
S11306E0B11D8093120190931301A0931401B09350
S11306F0150180911D018F5F80931D0190911C0154
S1130700891305C081E080931F0110921D0180911F
S11307101E01882399F08091160190911701A091F0
S11307201801B09119010196A11DB11D8093160104
S113073090931701A0931801B093190180911A01A5
S113074090911B01009729F0019790931B018093CE
S11307501A01BF91AF919F918F910F900FBE0F908F
S11307601F90189597FB072E16F4009407D077FD79
S113077009D00E94C60307FC05D03EF490958195EC
S11307809F4F0895709561957F4F0895AA1BBB1BD9
S113079051E107C0AA1FBB1FA617B70710F0A61B7D
S11307A0B70B881F991F5A95A9F780959095BC019E
S10B07B0CD010895F894FFCF78
S11307B854454D503A200020430048554D3A2000F6
S10507C8250006
S9030000FC
